{
  "_format": "hh-sol-artifact-1",
  "contractName": "AdventureBadge",
  "sourceName": "contracts/AdventureBadge.sol",
  "abi": [
    {
      "inputs": [
        {
          "internalType": "string",
          "name": "baseURI",
          "type": "string"
        }
      ],
      "stateMutability": "nonpayable",
      "type": "constructor"
    },
    {
      "anonymous": false,
      "inputs": [
        {
          "indexed": true,
          "internalType": "address",
          "name": "account",
          "type": "address"
        },
        {
          "indexed": true,
          "internalType": "address",
          "name": "operator",
          "type": "address"
        },
        {
          "indexed": false,
          "internalType": "bool",
          "name": "approved",
          "type": "bool"
        }
      ],
      "name": "ApprovalForAll",
      "type": "event"
    },
    {
      "anonymous": false,
      "inputs": [
        {
          "indexed": true,
          "internalType": "address",
          "name": "previousOwner",
          "type": "address"
        },
        {
          "indexed": true,
          "internalType": "address",
          "name": "newOwner",
          "type": "address"
        }
      ],
      "name": "OwnershipTransferred",
      "type": "event"
    },
    {
      "anonymous": false,
      "inputs": [
        {
          "indexed": false,
          "internalType": "address",
          "name": "account",
          "type": "address"
        }
      ],
      "name": "Paused",
      "type": "event"
    },
    {
      "anonymous": false,
      "inputs": [
        {
          "indexed": true,
          "internalType": "bytes32",
          "name": "role",
          "type": "bytes32"
        },
        {
          "indexed": true,
          "internalType": "bytes32",
          "name": "previousAdminRole",
          "type": "bytes32"
        },
        {
          "indexed": true,
          "internalType": "bytes32",
          "name": "newAdminRole",
          "type": "bytes32"
        }
      ],
      "name": "RoleAdminChanged",
      "type": "event"
    },
    {
      "anonymous": false,
      "inputs": [
        {
          "indexed": true,
          "internalType": "bytes32",
          "name": "role",
          "type": "bytes32"
        },
        {
          "indexed": true,
          "internalType": "address",
          "name": "account",
          "type": "address"
        },
        {
          "indexed": true,
          "internalType": "address",
          "name": "sender",
          "type": "address"
        }
      ],
      "name": "RoleGranted",
      "type": "event"
    },
    {
      "anonymous": false,
      "inputs": [
        {
          "indexed": true,
          "internalType": "bytes32",
          "name": "role",
          "type": "bytes32"
        },
        {
          "indexed": true,
          "internalType": "address",
          "name": "account",
          "type": "address"
        },
        {
          "indexed": true,
          "internalType": "address",
          "name": "sender",
          "type": "address"
        }
      ],
      "name": "RoleRevoked",
      "type": "event"
    },
    {
      "anonymous": false,
      "inputs": [
        {
          "indexed": true,
          "internalType": "address",
          "name": "operator",
          "type": "address"
        },
        {
          "indexed": true,
          "internalType": "address",
          "name": "from",
          "type": "address"
        },
        {
          "indexed": true,
          "internalType": "address",
          "name": "to",
          "type": "address"
        },
        {
          "indexed": false,
          "internalType": "uint256[]",
          "name": "ids",
          "type": "uint256[]"
        },
        {
          "indexed": false,
          "internalType": "uint256[]",
          "name": "values",
          "type": "uint256[]"
        }
      ],
      "name": "TransferBatch",
      "type": "event"
    },
    {
      "anonymous": false,
      "inputs": [
        {
          "indexed": true,
          "internalType": "address",
          "name": "operator",
          "type": "address"
        },
        {
          "indexed": true,
          "internalType": "address",
          "name": "from",
          "type": "address"
        },
        {
          "indexed": true,
          "internalType": "address",
          "name": "to",
          "type": "address"
        },
        {
          "indexed": false,
          "internalType": "uint256",
          "name": "id",
          "type": "uint256"
        },
        {
          "indexed": false,
          "internalType": "uint256",
          "name": "value",
          "type": "uint256"
        }
      ],
      "name": "TransferSingle",
      "type": "event"
    },
    {
      "anonymous": false,
      "inputs": [
        {
          "indexed": false,
          "internalType": "string",
          "name": "value",
          "type": "string"
        },
        {
          "indexed": true,
          "internalType": "uint256",
          "name": "id",
          "type": "uint256"
        }
      ],
      "name": "URI",
      "type": "event"
    },
    {
      "anonymous": false,
      "inputs": [
        {
          "indexed": false,
          "internalType": "address",
          "name": "account",
          "type": "address"
        }
      ],
      "name": "Unpaused",
      "type": "event"
    },
    {
      "inputs": [],
      "name": "DEFAULT_ADMIN_ROLE",
      "outputs": [
        {
          "internalType": "bytes32",
          "name": "",
          "type": "bytes32"
        }
      ],
      "stateMutability": "view",
      "type": "function"
    },
    {
      "inputs": [],
      "name": "TIER_FIVE",
      "outputs": [
        {
          "internalType": "uint256",
          "name": "",
          "type": "uint256"
        }
      ],
      "stateMutability": "view",
      "type": "function"
    },
    {
      "inputs": [],
      "name": "TIER_FOUR",
      "outputs": [
        {
          "internalType": "uint256",
          "name": "",
          "type": "uint256"
        }
      ],
      "stateMutability": "view",
      "type": "function"
    },
    {
      "inputs": [],
      "name": "TIER_ONE",
      "outputs": [
        {
          "internalType": "uint256",
          "name": "",
          "type": "uint256"
        }
      ],
      "stateMutability": "view",
      "type": "function"
    },
    {
      "inputs": [],
      "name": "TIER_SIX",
      "outputs": [
        {
          "internalType": "uint256",
          "name": "",
          "type": "uint256"
        }
      ],
      "stateMutability": "view",
      "type": "function"
    },
    {
      "inputs": [],
      "name": "TIER_THREE",
      "outputs": [
        {
          "internalType": "uint256",
          "name": "",
          "type": "uint256"
        }
      ],
      "stateMutability": "view",
      "type": "function"
    },
    {
      "inputs": [],
      "name": "TIER_TWO",
      "outputs": [
        {
          "internalType": "uint256",
          "name": "",
          "type": "uint256"
        }
      ],
      "stateMutability": "view",
      "type": "function"
    },
    {
      "inputs": [],
      "name": "UNALLOWED",
      "outputs": [
        {
          "internalType": "uint256",
          "name": "",
          "type": "uint256"
        }
      ],
      "stateMutability": "view",
      "type": "function"
    },
    {
      "inputs": [
        {
          "internalType": "address",
          "name": "",
          "type": "address"
        }
      ],
      "name": "addressAlreadyMinted",
      "outputs": [
        {
          "internalType": "bool",
          "name": "",
          "type": "bool"
        }
      ],
      "stateMutability": "view",
      "type": "function"
    },
    {
      "inputs": [
        {
          "internalType": "address",
          "name": "",
          "type": "address"
        }
      ],
      "name": "addressToTokenId",
      "outputs": [
        {
          "internalType": "uint8",
          "name": "",
          "type": "uint8"
        }
      ],
      "stateMutability": "view",
      "type": "function"
    },
    {
      "inputs": [
        {
          "internalType": "address",
          "name": "account",
          "type": "address"
        },
        {
          "internalType": "uint256",
          "name": "id",
          "type": "uint256"
        }
      ],
      "name": "balanceOf",
      "outputs": [
        {
          "internalType": "uint256",
          "name": "",
          "type": "uint256"
        }
      ],
      "stateMutability": "view",
      "type": "function"
    },
    {
      "inputs": [
        {
          "internalType": "address[]",
          "name": "accounts",
          "type": "address[]"
        },
        {
          "internalType": "uint256[]",
          "name": "ids",
          "type": "uint256[]"
        }
      ],
      "name": "balanceOfBatch",
      "outputs": [
        {
          "internalType": "uint256[]",
          "name": "",
          "type": "uint256[]"
        }
      ],
      "stateMutability": "view",
      "type": "function"
    },
    {
      "inputs": [
        {
          "internalType": "uint256",
          "name": "id",
          "type": "uint256"
        }
      ],
      "name": "exists",
      "outputs": [
        {
          "internalType": "bool",
          "name": "",
          "type": "bool"
        }
      ],
      "stateMutability": "view",
      "type": "function"
    },
    {
      "inputs": [
        {
          "internalType": "bytes32",
          "name": "role",
          "type": "bytes32"
        }
      ],
      "name": "getRoleAdmin",
      "outputs": [
        {
          "internalType": "bytes32",
          "name": "",
          "type": "bytes32"
        }
      ],
      "stateMutability": "view",
      "type": "function"
    },
    {
      "inputs": [
        {
          "internalType": "bytes32",
          "name": "role",
          "type": "bytes32"
        },
        {
          "internalType": "uint256",
          "name": "index",
          "type": "uint256"
        }
      ],
      "name": "getRoleMember",
      "outputs": [
        {
          "internalType": "address",
          "name": "",
          "type": "address"
        }
      ],
      "stateMutability": "view",
      "type": "function"
    },
    {
      "inputs": [
        {
          "internalType": "bytes32",
          "name": "role",
          "type": "bytes32"
        }
      ],
      "name": "getRoleMemberCount",
      "outputs": [
        {
          "internalType": "uint256",
          "name": "",
          "type": "uint256"
        }
      ],
      "stateMutability": "view",
      "type": "function"
    },
    {
      "inputs": [
        {
          "internalType": "bytes32",
          "name": "role",
          "type": "bytes32"
        },
        {
          "internalType": "address",
          "name": "account",
          "type": "address"
        }
      ],
      "name": "grantRole",
      "outputs": [],
      "stateMutability": "nonpayable",
      "type": "function"
    },
    {
      "inputs": [
        {
          "internalType": "bytes32",
          "name": "role",
          "type": "bytes32"
        },
        {
          "internalType": "address",
          "name": "account",
          "type": "address"
        }
      ],
      "name": "hasRole",
      "outputs": [
        {
          "internalType": "bool",
          "name": "",
          "type": "bool"
        }
      ],
      "stateMutability": "view",
      "type": "function"
    },
    {
      "inputs": [
        {
          "internalType": "address",
          "name": "account",
          "type": "address"
        },
        {
          "internalType": "address",
          "name": "operator",
          "type": "address"
        }
      ],
      "name": "isApprovedForAll",
      "outputs": [
        {
          "internalType": "bool",
          "name": "",
          "type": "bool"
        }
      ],
      "stateMutability": "view",
      "type": "function"
    },
    {
      "inputs": [
        {
          "internalType": "uint8",
          "name": "_id",
          "type": "uint8"
        },
        {
          "internalType": "uint256",
          "name": "_amount",
          "type": "uint256"
        },
        {
          "internalType": "bytes",
          "name": "_data",
          "type": "bytes"
        }
      ],
      "name": "mint",
      "outputs": [],
      "stateMutability": "nonpayable",
      "type": "function"
    },
    {
      "inputs": [],
      "name": "owner",
      "outputs": [
        {
          "internalType": "address",
          "name": "",
          "type": "address"
        }
      ],
      "stateMutability": "view",
      "type": "function"
    },
    {
      "inputs": [],
      "name": "pause",
      "outputs": [],
      "stateMutability": "nonpayable",
      "type": "function"
    },
    {
      "inputs": [],
      "name": "paused",
      "outputs": [
        {
          "internalType": "bool",
          "name": "",
          "type": "bool"
        }
      ],
      "stateMutability": "view",
      "type": "function"
    },
    {
      "inputs": [],
      "name": "renounceOwnership",
      "outputs": [],
      "stateMutability": "nonpayable",
      "type": "function"
    },
    {
      "inputs": [
        {
          "internalType": "bytes32",
          "name": "role",
          "type": "bytes32"
        },
        {
          "internalType": "address",
          "name": "account",
          "type": "address"
        }
      ],
      "name": "renounceRole",
      "outputs": [],
      "stateMutability": "nonpayable",
      "type": "function"
    },
    {
      "inputs": [
        {
          "internalType": "bytes32",
          "name": "role",
          "type": "bytes32"
        },
        {
          "internalType": "address",
          "name": "account",
          "type": "address"
        }
      ],
      "name": "revokeRole",
      "outputs": [],
      "stateMutability": "nonpayable",
      "type": "function"
    },
    {
      "inputs": [
        {
          "internalType": "address",
          "name": "from",
          "type": "address"
        },
        {
          "internalType": "address",
          "name": "to",
          "type": "address"
        },
        {
          "internalType": "uint256[]",
          "name": "ids",
          "type": "uint256[]"
        },
        {
          "internalType": "uint256[]",
          "name": "amounts",
          "type": "uint256[]"
        },
        {
          "internalType": "bytes",
          "name": "data",
          "type": "bytes"
        }
      ],
      "name": "safeBatchTransferFrom",
      "outputs": [],
      "stateMutability": "nonpayable",
      "type": "function"
    },
    {
      "inputs": [
        {
          "internalType": "address",
          "name": "from",
          "type": "address"
        },
        {
          "internalType": "address",
          "name": "to",
          "type": "address"
        },
        {
          "internalType": "uint256",
          "name": "id",
          "type": "uint256"
        },
        {
          "internalType": "uint256",
          "name": "amount",
          "type": "uint256"
        },
        {
          "internalType": "bytes",
          "name": "data",
          "type": "bytes"
        }
      ],
      "name": "safeTransferFrom",
      "outputs": [],
      "stateMutability": "nonpayable",
      "type": "function"
    },
    {
      "inputs": [
        {
          "internalType": "address[]",
          "name": "_addresses",
          "type": "address[]"
        },
        {
          "internalType": "uint8",
          "name": "_skillId",
          "type": "uint8"
        }
      ],
      "name": "setAllowList",
      "outputs": [],
      "stateMutability": "nonpayable",
      "type": "function"
    },
    {
      "inputs": [
        {
          "internalType": "address",
          "name": "operator",
          "type": "address"
        },
        {
          "internalType": "bool",
          "name": "approved",
          "type": "bool"
        }
      ],
      "name": "setApprovalForAll",
      "outputs": [],
      "stateMutability": "nonpayable",
      "type": "function"
    },
    {
      "inputs": [
        {
          "internalType": "bytes4",
          "name": "interfaceId",
          "type": "bytes4"
        }
      ],
      "name": "supportsInterface",
      "outputs": [
        {
          "internalType": "bool",
          "name": "",
          "type": "bool"
        }
      ],
      "stateMutability": "view",
      "type": "function"
    },
    {
      "inputs": [
        {
          "internalType": "uint256",
          "name": "id",
          "type": "uint256"
        }
      ],
      "name": "totalSupply",
      "outputs": [
        {
          "internalType": "uint256",
          "name": "",
          "type": "uint256"
        }
      ],
      "stateMutability": "view",
      "type": "function"
    },
    {
      "inputs": [
        {
          "internalType": "address",
          "name": "newOwner",
          "type": "address"
        }
      ],
      "name": "transferOwnership",
      "outputs": [],
      "stateMutability": "nonpayable",
      "type": "function"
    },
    {
      "inputs": [],
      "name": "unpause",
      "outputs": [],
      "stateMutability": "nonpayable",
      "type": "function"
    },
    {
      "inputs": [
        {
          "internalType": "uint256",
          "name": "id",
          "type": "uint256"
        }
      ],
      "name": "uri",
      "outputs": [
        {
          "internalType": "string",
          "name": "",
          "type": "string"
        }
      ],
      "stateMutability": "view",
      "type": "function"
    }
  ],
  "bytecode": "0x60806040523480156200001157600080fd5b506040516200581c3803806200581c83398181016040528101906200003791906200054a565b806200004981620000b060201b60201c565b506200006a6200005e620000cc60201b60201c565b620000d460201b60201c565b6000600560146101000a81548160ff021916908315150217905550620000a96000801b6200009d620000cc60201b60201c565b6200019a60201b60201c565b50620006ff565b8060039080519060200190620000c892919062000428565b5050565b600033905090565b6000600560009054906101000a900473ffffffffffffffffffffffffffffffffffffffff16905081600560006101000a81548173ffffffffffffffffffffffffffffffffffffffff021916908373ffffffffffffffffffffffffffffffffffffffff1602179055508173ffffffffffffffffffffffffffffffffffffffff168173ffffffffffffffffffffffffffffffffffffffff167f8be0079c531659141344cd1fd0a4f28419497f9722a3daafe3b4186f6b6457e060405160405180910390a35050565b620001ac8282620001b060201b60201c565b5050565b620001c78282620001f860201b620014fa1760201c565b620001f38160046000858152602001908152602001600020620002e960201b620015da1790919060201c565b505050565b6200020a82826200032160201b60201c565b620002e557600160008084815260200190815260200160002060000160008373ffffffffffffffffffffffffffffffffffffffff1673ffffffffffffffffffffffffffffffffffffffff16815260200190815260200160002060006101000a81548160ff0219169083151502179055506200028a620000cc60201b60201c565b73ffffffffffffffffffffffffffffffffffffffff168173ffffffffffffffffffffffffffffffffffffffff16837f2f8788117e7eff1d82e926ec794901d17c78024a50270940304540a733656f0d60405160405180910390a45b5050565b600062000319836000018373ffffffffffffffffffffffffffffffffffffffff1660001b6200038b60201b60201c565b905092915050565b600080600084815260200190815260200160002060000160008373ffffffffffffffffffffffffffffffffffffffff1673ffffffffffffffffffffffffffffffffffffffff16815260200190815260200160002060009054906101000a900460ff16905092915050565b60006200039f83836200040560201b60201c565b620003fa578260000182908060018154018082558091505060019003906000526020600020016000909190919091505582600001805490508360010160008481526020019081526020016000208190555060019050620003ff565b600090505b92915050565b600080836001016000848152602001908152602001600020541415905092915050565b828054620004369062000624565b90600052602060002090601f0160209004810192826200045a5760008555620004a6565b82601f106200047557805160ff1916838001178555620004a6565b82800160010185558215620004a6579182015b82811115620004a557825182559160200191906001019062000488565b5b509050620004b59190620004b9565b5090565b5b80821115620004d4576000816000905550600101620004ba565b5090565b6000620004ef620004e984620005b8565b6200058f565b9050828152602081018484840111156200050857600080fd5b62000515848285620005ee565b509392505050565b600082601f8301126200052f57600080fd5b815162000541848260208601620004d8565b91505092915050565b6000602082840312156200055d57600080fd5b600082015167ffffffffffffffff8111156200057857600080fd5b62000586848285016200051d565b91505092915050565b60006200059b620005ae565b9050620005a982826200065a565b919050565b6000604051905090565b600067ffffffffffffffff821115620005d657620005d5620006bf565b5b620005e182620006ee565b9050602081019050919050565b60005b838110156200060e578082015181840152602081019050620005f1565b838111156200061e576000848401525b50505050565b600060028204905060018216806200063d57607f821691505b6020821081141562000654576200065362000690565b5b50919050565b6200066582620006ee565b810181811067ffffffffffffffff82111715620006875762000686620006bf565b5b80604052505050565b7f4e487b7100000000000000000000000000000000000000000000000000000000600052602260045260246000fd5b7f4e487b7100000000000000000000000000000000000000000000000000000000600052604160045260246000fd5b6000601f19601f8301169050919050565b61510d806200070f6000396000f3fe608060405234801561001057600080fd5b50600436106102105760003560e01c806375e7e05311610125578063a22cb465116100ad578063d52a37361161007c578063d52a373614610629578063d547741f14610647578063e985e9c514610663578063f242432a14610693578063f2fde38b146106af57610210565b8063a22cb4651461057d578063bd85b03914610599578063ca15c873146105c9578063ca6c261d146105f957610210565b80638da5cb5b116100f45780638da5cb5b146104c35780639010d07c146104e157806391d1485414610511578063a1849f6914610541578063a217fddf1461055f57610210565b806375e7e053146104635780638128fe571461047f5780638295784d1461049d5780638456cb59146104b957610210565b80632f2ff15d116101a85780634e1273f4116101775780634e1273f4146103ab5780634f558e79146103db5780635c975abb1461040b5780636511bf2e14610429578063715018a61461045957610210565b80632f2ff15d1461034b57806334f054201461036757806336568abe146103855780633f4ba83a146103a157610210565b80631928ada4116101e45780631928ada4146102c3578063248a9ca3146102e15780632668ce32146103115780632eb2c2d61461032f57610210565b8062fdd58e1461021557806301ffc9a71461024557806307e7e56d146102755780630e89341c14610293575b600080fd5b61022f600480360381019061022a9190613826565b6106cb565b60405161023c9190614453565b60405180910390f35b61025f600480360381019061025a91906139c7565b610795565b60405161026c919061411b565b60405180910390f35b61027d6107a7565b60405161028a9190614453565b60405180910390f35b6102ad60048036038101906102a89190613a19565b6107ac565b6040516102ba9190614151565b60405180910390f35b6102cb6107be565b6040516102d89190614453565b60405180910390f35b6102fb60048036038101906102f69190613926565b6107c3565b6040516103089190614136565b60405180910390f35b6103196107e2565b6040516103269190614453565b60405180910390f35b6103496004803603810190610344919061369c565b6107e7565b005b6103656004803603810190610360919061394f565b610888565b005b61036f6108b1565b60405161037c9190614453565b60405180910390f35b61039f600480360381019061039a919061394f565b6108b6565b005b6103a9610939565b005b6103c560048036038101906103c091906138ba565b6109bf565b6040516103d291906140c2565b60405180910390f35b6103f560048036038101906103f09190613a19565b610b70565b604051610402919061411b565b60405180910390f35b610413610b84565b604051610420919061411b565b60405180910390f35b610443600480360381019061043e9190613637565b610b9b565b6040516104509190614497565b60405180910390f35b610461610bbb565b005b61047d60048036038101906104789190613a42565b610c43565b005b610487610ea6565b6040516104949190614453565b60405180910390f35b6104b760048036038101906104b29190613862565b610eab565b005b6104c1611046565b005b6104cb6110cc565b6040516104d89190613fe5565b60405180910390f35b6104fb60048036038101906104f6919061398b565b6110f6565b6040516105089190613fe5565b60405180910390f35b61052b6004803603810190610526919061394f565b611125565b604051610538919061411b565b60405180910390f35b61054961118f565b6040516105569190614453565b60405180910390f35b610567611194565b6040516105749190614136565b60405180910390f35b610597600480360381019061059291906137ea565b61119b565b005b6105b360048036038101906105ae9190613a19565b61123e565b6040516105c09190614453565b60405180910390f35b6105e360048036038101906105de9190613926565b61125b565b6040516105f09190614453565b60405180910390f35b610613600480360381019061060e9190613637565b61127f565b604051610620919061411b565b60405180910390f35b61063161129f565b60405161063e9190614453565b60405180910390f35b610661600480360381019061065c919061394f565b6112a4565b005b61067d60048036038101906106789190613660565b6112cd565b60405161068a919061411b565b60405180910390f35b6106ad60048036038101906106a8919061375b565b611361565b005b6106c960048036038101906106c49190613637565b611402565b005b60008073ffffffffffffffffffffffffffffffffffffffff168373ffffffffffffffffffffffffffffffffffffffff16141561073c576040517f08c379a000000000000000000000000000000000000000000000000000000000815260040161073390614213565b60405180910390fd5b6001600083815260200190815260200160002060008473ffffffffffffffffffffffffffffffffffffffff1673ffffffffffffffffffffffffffffffffffffffff16815260200190815260200160002054905092915050565b60006107a08261160a565b9050919050565b600481565b60606107b782611684565b9050919050565b600181565b6000806000838152602001908152602001600020600101549050919050565b600681565b6107ef61178b565b73ffffffffffffffffffffffffffffffffffffffff168573ffffffffffffffffffffffffffffffffffffffff16148061083557506108348561082f61178b565b6112cd565b5b610874576040517f08c379a000000000000000000000000000000000000000000000000000000000815260040161086b906142f3565b60405180910390fd5b6108818585858585611793565b5050505050565b610891826107c3565b6108a28161089d61178b565b611af6565b6108ac8383611b93565b505050565b600381565b6108be61178b565b73ffffffffffffffffffffffffffffffffffffffff168173ffffffffffffffffffffffffffffffffffffffff161461092b576040517f08c379a000000000000000000000000000000000000000000000000000000000815260040161092290614413565b60405180910390fd5b6109358282611bc7565b5050565b61094161178b565b73ffffffffffffffffffffffffffffffffffffffff1661095f6110cc565b73ffffffffffffffffffffffffffffffffffffffff16146109b5576040517f08c379a00000000000000000000000000000000000000000000000000000000081526004016109ac90614353565b60405180910390fd5b6109bd611bfb565b565b60608151835114610a05576040517f08c379a00000000000000000000000000000000000000000000000000000000081526004016109fc906143b3565b60405180910390fd5b6000835167ffffffffffffffff811115610a48577f4e487b7100000000000000000000000000000000000000000000000000000000600052604160045260246000fd5b604051908082528060200260200182016040528015610a765781602001602082028036833780820191505090505b50905060005b8451811015610b6557610b0f858281518110610ac1577f4e487b7100000000000000000000000000000000000000000000000000000000600052603260045260246000fd5b6020026020010151858381518110610b02577f4e487b7100000000000000000000000000000000000000000000000000000000600052603260045260246000fd5b60200260200101516106cb565b828281518110610b48577f4e487b7100000000000000000000000000000000000000000000000000000000600052603260045260246000fd5b60200260200101818152505080610b5e9061481a565b9050610a7c565b508091505092915050565b600080610b7c8361123e565b119050919050565b6000600560149054906101000a900460ff16905090565b60086020528060005260406000206000915054906101000a900460ff1681565b610bc361178b565b73ffffffffffffffffffffffffffffffffffffffff16610be16110cc565b73ffffffffffffffffffffffffffffffffffffffff1614610c37576040517f08c379a0000000000000000000000000000000000000000000000000000000008152600401610c2e90614353565b60405180910390fd5b610c416000611c9d565b565b6000600860003373ffffffffffffffffffffffffffffffffffffffff1673ffffffffffffffffffffffffffffffffffffffff16815260200190815260200160002060009054906101000a900460ff1660ff161415610cd6576040517f08c379a0000000000000000000000000000000000000000000000000000000008152600401610ccd906141d3565b60405180910390fd5b8260ff16600860003373ffffffffffffffffffffffffffffffffffffffff1673ffffffffffffffffffffffffffffffffffffffff16815260200190815260200160002060009054906101000a900460ff1660ff1614610d6a576040517f08c379a0000000000000000000000000000000000000000000000000000000008152600401610d6190614433565b60405180910390fd5b60018214610dad576040517f08c379a0000000000000000000000000000000000000000000000000000000008152600401610da490614293565b60405180910390fd5b600960003373ffffffffffffffffffffffffffffffffffffffff1673ffffffffffffffffffffffffffffffffffffffff16815260200190815260200160002060009054906101000a900460ff1615610e3a576040517f08c379a0000000000000000000000000000000000000000000000000000000008152600401610e3190614273565b60405180910390fd5b610e49338460ff168484611d63565b6001600960003373ffffffffffffffffffffffffffffffffffffffff1673ffffffffffffffffffffffffffffffffffffffff16815260200190815260200160002060006101000a81548160ff021916908315150217905550505050565b600581565b610eb361178b565b73ffffffffffffffffffffffffffffffffffffffff16610ed16110cc565b73ffffffffffffffffffffffffffffffffffffffff1614610f27576040517f08c379a0000000000000000000000000000000000000000000000000000000008152600401610f1e90614353565b60405180910390fd5b610f3b6000801b610f3661178b565b611125565b610f7a576040517f08c379a0000000000000000000000000000000000000000000000000000000008152600401610f7190614333565b60405180910390fd5b60005b83839050811015611040578160086000868685818110610fc6577f4e487b7100000000000000000000000000000000000000000000000000000000600052603260045260246000fd5b9050602002016020810190610fdb9190613637565b73ffffffffffffffffffffffffffffffffffffffff1673ffffffffffffffffffffffffffffffffffffffff16815260200190815260200160002060006101000a81548160ff021916908360ff16021790555080806110389061481a565b915050610f7d565b50505050565b61104e61178b565b73ffffffffffffffffffffffffffffffffffffffff1661106c6110cc565b73ffffffffffffffffffffffffffffffffffffffff16146110c2576040517f08c379a00000000000000000000000000000000000000000000000000000000081526004016110b990614353565b60405180910390fd5b6110ca611efa565b565b6000600560009054906101000a900473ffffffffffffffffffffffffffffffffffffffff16905090565b600061111d8260046000868152602001908152602001600020611f9d90919063ffffffff16565b905092915050565b600080600084815260200190815260200160002060000160008373ffffffffffffffffffffffffffffffffffffffff1673ffffffffffffffffffffffffffffffffffffffff16815260200190815260200160002060009054906101000a900460ff16905092915050565b600081565b6000801b81565b600960003373ffffffffffffffffffffffffffffffffffffffff1673ffffffffffffffffffffffffffffffffffffffff16815260200190815260200160002060009054906101000a900460ff1615611228576040517f08c379a000000000000000000000000000000000000000000000000000000000815260040161121f90614373565b60405180910390fd5b61123a61123361178b565b8383611fb7565b5050565b600060066000838152602001908152602001600020549050919050565b600061127860046000848152602001908152602001600020612124565b9050919050565b60096020528060005260406000206000915054906101000a900460ff1681565b600281565b6112ad826107c3565b6112be816112b961178b565b611af6565b6112c88383611bc7565b505050565b6000600260008473ffffffffffffffffffffffffffffffffffffffff1673ffffffffffffffffffffffffffffffffffffffff16815260200190815260200160002060008373ffffffffffffffffffffffffffffffffffffffff1673ffffffffffffffffffffffffffffffffffffffff16815260200190815260200160002060009054906101000a900460ff16905092915050565b61136961178b565b73ffffffffffffffffffffffffffffffffffffffff168573ffffffffffffffffffffffffffffffffffffffff1614806113af57506113ae856113a961178b565b6112cd565b5b6113ee576040517f08c379a00000000000000000000000000000000000000000000000000000000081526004016113e590614253565b60405180910390fd5b6113fb8585858585612139565b5050505050565b61140a61178b565b73ffffffffffffffffffffffffffffffffffffffff166114286110cc565b73ffffffffffffffffffffffffffffffffffffffff161461147e576040517f08c379a000000000000000000000000000000000000000000000000000000000815260040161147590614353565b60405180910390fd5b600073ffffffffffffffffffffffffffffffffffffffff168173ffffffffffffffffffffffffffffffffffffffff1614156114ee576040517f08c379a00000000000000000000000000000000000000000000000000000000081526004016114e590614233565b60405180910390fd5b6114f781611c9d565b50565b6115048282611125565b6115d657600160008084815260200190815260200160002060000160008373ffffffffffffffffffffffffffffffffffffffff1673ffffffffffffffffffffffffffffffffffffffff16815260200190815260200160002060006101000a81548160ff02191690831515021790555061157b61178b565b73ffffffffffffffffffffffffffffffffffffffff168173ffffffffffffffffffffffffffffffffffffffff16837f2f8788117e7eff1d82e926ec794901d17c78024a50270940304540a733656f0d60405160405180910390a45b5050565b6000611602836000018373ffffffffffffffffffffffffffffffffffffffff1660001b6123be565b905092915050565b60007f5a05180f000000000000000000000000000000000000000000000000000000007bffffffffffffffffffffffffffffffffffffffffffffffffffffffff1916827bffffffffffffffffffffffffffffffffffffffffffffffffffffffff1916148061167d575061167c8261242e565b5b9050919050565b606060006007600084815260200190815260200160002080546116a6906147b7565b80601f01602080910402602001604051908101604052809291908181526020018280546116d2906147b7565b801561171f5780601f106116f45761010080835404028352916020019161171f565b820191906000526020600020905b81548152906001019060200180831161170257829003601f168201915b5050505050905060006040518060400160405280600781526020017f697066733a2f2f0000000000000000000000000000000000000000000000000081525090508082604051602001611773929190613f87565b60405160208183030381529060405292505050919050565b600033905090565b81518351146117d7576040517f08c379a00000000000000000000000000000000000000000000000000000000081526004016117ce906143d3565b60405180910390fd5b600073ffffffffffffffffffffffffffffffffffffffff168473ffffffffffffffffffffffffffffffffffffffff161415611847576040517f08c379a000000000000000000000000000000000000000000000000000000000815260040161183e906142d3565b60405180910390fd5b600061185161178b565b9050611861818787878787612510565b60005b8451811015611a615760008582815181106118a8577f4e487b7100000000000000000000000000000000000000000000000000000000600052603260045260246000fd5b6020026020010151905060008583815181106118ed577f4e487b7100000000000000000000000000000000000000000000000000000000600052603260045260246000fd5b6020026020010151905060006001600084815260200190815260200160002060008b73ffffffffffffffffffffffffffffffffffffffff1673ffffffffffffffffffffffffffffffffffffffff1681526020019081526020016000205490508181101561198f576040517f08c379a000000000000000000000000000000000000000000000000000000000815260040161198690614313565b60405180910390fd5b8181036001600085815260200190815260200160002060008c73ffffffffffffffffffffffffffffffffffffffff1673ffffffffffffffffffffffffffffffffffffffff16815260200190815260200160002081905550816001600085815260200190815260200160002060008b73ffffffffffffffffffffffffffffffffffffffff1673ffffffffffffffffffffffffffffffffffffffff1681526020019081526020016000206000828254611a4691906145dc565b9250508190555050505080611a5a9061481a565b9050611864565b508473ffffffffffffffffffffffffffffffffffffffff168673ffffffffffffffffffffffffffffffffffffffff168273ffffffffffffffffffffffffffffffffffffffff167f4a39dc06d4c0dbc64b70af90fd698a233a518aa5d07e595d983b8c0526c8f7fb8787604051611ad89291906140e4565b60405180910390a4611aee8187878787876125fb565b505050505050565b611b008282611125565b611b8f57611b258173ffffffffffffffffffffffffffffffffffffffff1660146127e2565b611b338360001c60206127e2565b604051602001611b44929190613fab565b6040516020818303038152906040526040517f08c379a0000000000000000000000000000000000000000000000000000000008152600401611b869190614151565b60405180910390fd5b5050565b611b9d82826114fa565b611bc281600460008581526020019081526020016000206115da90919063ffffffff16565b505050565b611bd18282612adc565b611bf68160046000858152602001908152602001600020612bbd90919063ffffffff16565b505050565b611c03610b84565b611c42576040517f08c379a0000000000000000000000000000000000000000000000000000000008152600401611c39906141f3565b60405180910390fd5b6000600560146101000a81548160ff0219169083151502179055507f5db9ee0a495bf2e6ff9c91a7834c1ba4fdd244a5e8aa4e537bd38aeae4b073aa611c8661178b565b604051611c939190613fe5565b60405180910390a1565b6000600560009054906101000a900473ffffffffffffffffffffffffffffffffffffffff16905081600560006101000a81548173ffffffffffffffffffffffffffffffffffffffff021916908373ffffffffffffffffffffffffffffffffffffffff1602179055508173ffffffffffffffffffffffffffffffffffffffff168173ffffffffffffffffffffffffffffffffffffffff167f8be0079c531659141344cd1fd0a4f28419497f9722a3daafe3b4186f6b6457e060405160405180910390a35050565b600073ffffffffffffffffffffffffffffffffffffffff168473ffffffffffffffffffffffffffffffffffffffff161415611dd3576040517f08c379a0000000000000000000000000000000000000000000000000000000008152600401611dca906143f3565b60405180910390fd5b6000611ddd61178b565b9050611dfe81600087611def88612bed565b611df888612bed565b87612510565b826001600086815260200190815260200160002060008773ffffffffffffffffffffffffffffffffffffffff1673ffffffffffffffffffffffffffffffffffffffff1681526020019081526020016000206000828254611e5e91906145dc565b925050819055508473ffffffffffffffffffffffffffffffffffffffff16600073ffffffffffffffffffffffffffffffffffffffff168273ffffffffffffffffffffffffffffffffffffffff167fc3d58168c5ae7397731d063d5bbf3d657854427343f4c083240f7aacaa2d0f628787604051611edc92919061446e565b60405180910390a4611ef381600087878787612cb3565b5050505050565b611f02610b84565b15611f42576040517f08c379a0000000000000000000000000000000000000000000000000000000008152600401611f39906142b3565b60405180910390fd5b6001600560146101000a81548160ff0219169083151502179055507f62e78cea01bee320cd4e420270b5ea74000d11b0c9f74754ebdbfc544b05a258611f8661178b565b604051611f939190613fe5565b60405180910390a1565b6000611fac8360000183612e9a565b60001c905092915050565b8173ffffffffffffffffffffffffffffffffffffffff168373ffffffffffffffffffffffffffffffffffffffff161415612026576040517f08c379a000000000000000000000000000000000000000000000000000000000815260040161201d90614393565b60405180910390fd5b80600260008573ffffffffffffffffffffffffffffffffffffffff1673ffffffffffffffffffffffffffffffffffffffff16815260200190815260200160002060008473ffffffffffffffffffffffffffffffffffffffff1673ffffffffffffffffffffffffffffffffffffffff16815260200190815260200160002060006101000a81548160ff0219169083151502179055508173ffffffffffffffffffffffffffffffffffffffff168373ffffffffffffffffffffffffffffffffffffffff167f17307eab39ab6107e8899845ad3d59bd9653f200f220920489ca2b5937696c3183604051612117919061411b565b60405180910390a3505050565b600061213282600001612eeb565b9050919050565b600073ffffffffffffffffffffffffffffffffffffffff168473ffffffffffffffffffffffffffffffffffffffff1614156121a9576040517f08c379a00000000000000000000000000000000000000000000000000000000081526004016121a0906142d3565b60405180910390fd5b60006121b361178b565b90506121d38187876121c488612bed565b6121cd88612bed565b87612510565b60006001600086815260200190815260200160002060008873ffffffffffffffffffffffffffffffffffffffff1673ffffffffffffffffffffffffffffffffffffffff1681526020019081526020016000205490508381101561226b576040517f08c379a000000000000000000000000000000000000000000000000000000000815260040161226290614313565b60405180910390fd5b8381036001600087815260200190815260200160002060008973ffffffffffffffffffffffffffffffffffffffff1673ffffffffffffffffffffffffffffffffffffffff16815260200190815260200160002081905550836001600087815260200190815260200160002060008873ffffffffffffffffffffffffffffffffffffffff1673ffffffffffffffffffffffffffffffffffffffff168152602001908152602001600020600082825461232291906145dc565b925050819055508573ffffffffffffffffffffffffffffffffffffffff168773ffffffffffffffffffffffffffffffffffffffff168373ffffffffffffffffffffffffffffffffffffffff167fc3d58168c5ae7397731d063d5bbf3d657854427343f4c083240f7aacaa2d0f62888860405161239f92919061446e565b60405180910390a46123b5828888888888612cb3565b50505050505050565b60006123ca8383612efc565b612423578260000182908060018154018082558091505060019003906000526020600020016000909190919091505582600001805490508360010160008481526020019081526020016000208190555060019050612428565b600090505b92915050565b60007fd9b67a26000000000000000000000000000000000000000000000000000000007bffffffffffffffffffffffffffffffffffffffffffffffffffffffff1916827bffffffffffffffffffffffffffffffffffffffffffffffffffffffff191614806124f957507f0e89341c000000000000000000000000000000000000000000000000000000007bffffffffffffffffffffffffffffffffffffffffffffffffffffffff1916827bffffffffffffffffffffffffffffffffffffffffffffffffffffffff1916145b80612509575061250882612f1f565b5b9050919050565b612518610b84565b15612558576040517f08c379a000000000000000000000000000000000000000000000000000000000815260040161254f906142b3565b60405180910390fd5b600960003373ffffffffffffffffffffffffffffffffffffffff1673ffffffffffffffffffffffffffffffffffffffff16815260200190815260200160002060009054906101000a900460ff16156125e5576040517f08c379a00000000000000000000000000000000000000000000000000000000081526004016125dc90614373565b60405180910390fd5b6125f3868686868686612f99565b505050505050565b61261a8473ffffffffffffffffffffffffffffffffffffffff166131ab565b156127da578373ffffffffffffffffffffffffffffffffffffffff1663bc197c8187878686866040518663ffffffff1660e01b8152600401612660959493929190614000565b602060405180830381600087803b15801561267a57600080fd5b505af19250505080156126ab57506040513d601f19601f820116820180604052508101906126a891906139f0565b60015b612751576126b76148f0565b806308c379a0141561271457506126cc614fb7565b806126d75750612716565b806040517f08c379a000000000000000000000000000000000000000000000000000000000815260040161270b9190614151565b60405180910390fd5b505b6040517f08c379a000000000000000000000000000000000000000000000000000000000815260040161274890614173565b60405180910390fd5b63bc197c8160e01b7bffffffffffffffffffffffffffffffffffffffffffffffffffffffff1916817bffffffffffffffffffffffffffffffffffffffffffffffffffffffff1916146127d8576040517f08c379a00000000000000000000000000000000000000000000000000000000081526004016127cf906141b3565b60405180910390fd5b505b505050505050565b6060600060028360026127f59190614632565b6127ff91906145dc565b67ffffffffffffffff81111561283e577f4e487b7100000000000000000000000000000000000000000000000000000000600052604160045260246000fd5b6040519080825280601f01601f1916602001820160405280156128705781602001600182028036833780820191505090505b5090507f3000000000000000000000000000000000000000000000000000000000000000816000815181106128ce577f4e487b7100000000000000000000000000000000000000000000000000000000600052603260045260246000fd5b60200101907effffffffffffffffffffffffffffffffffffffffffffffffffffffffffffff1916908160001a9053507f780000000000000000000000000000000000000000000000000000000000000081600181518110612958577f4e487b7100000000000000000000000000000000000000000000000000000000600052603260045260246000fd5b60200101907effffffffffffffffffffffffffffffffffffffffffffffffffffffffffffff1916908160001a905350600060018460026129989190614632565b6129a291906145dc565b90505b6001811115612a8e577f3031323334353637383961626364656600000000000000000000000000000000600f861660108110612a0a577f4e487b7100000000000000000000000000000000000000000000000000000000600052603260045260246000fd5b1a60f81b828281518110612a47577f4e487b7100000000000000000000000000000000000000000000000000000000600052603260045260246000fd5b60200101907effffffffffffffffffffffffffffffffffffffffffffffffffffffffffffff1916908160001a905350600485901c945080612a879061478d565b90506129a5565b5060008414612ad2576040517f08c379a0000000000000000000000000000000000000000000000000000000008152600401612ac990614193565b60405180910390fd5b8091505092915050565b612ae68282611125565b15612bb957600080600084815260200190815260200160002060000160008373ffffffffffffffffffffffffffffffffffffffff1673ffffffffffffffffffffffffffffffffffffffff16815260200190815260200160002060006101000a81548160ff021916908315150217905550612b5e61178b565b73ffffffffffffffffffffffffffffffffffffffff168173ffffffffffffffffffffffffffffffffffffffff16837ff6391f5c32d9c69d2a47ea670b442974b53935d1edc7fd64eb21e047a839171b60405160405180910390a45b5050565b6000612be5836000018373ffffffffffffffffffffffffffffffffffffffff1660001b6131ce565b905092915050565b60606000600167ffffffffffffffff811115612c32577f4e487b7100000000000000000000000000000000000000000000000000000000600052604160045260246000fd5b604051908082528060200260200182016040528015612c605781602001602082028036833780820191505090505b5090508281600081518110612c9e577f4e487b7100000000000000000000000000000000000000000000000000000000600052603260045260246000fd5b60200260200101818152505080915050919050565b612cd28473ffffffffffffffffffffffffffffffffffffffff166131ab565b15612e92578373ffffffffffffffffffffffffffffffffffffffff1663f23a6e6187878686866040518663ffffffff1660e01b8152600401612d18959493929190614068565b602060405180830381600087803b158015612d3257600080fd5b505af1925050508015612d6357506040513d601f19601f82011682018060405250810190612d6091906139f0565b60015b612e0957612d6f6148f0565b806308c379a01415612dcc5750612d84614fb7565b80612d8f5750612dce565b806040517f08c379a0000000000000000000000000000000000000000000000000000000008152600401612dc39190614151565b60405180910390fd5b505b6040517f08c379a0000000000000000000000000000000000000000000000000000000008152600401612e0090614173565b60405180910390fd5b63f23a6e6160e01b7bffffffffffffffffffffffffffffffffffffffffffffffffffffffff1916817bffffffffffffffffffffffffffffffffffffffffffffffffffffffff191614612e90576040517f08c379a0000000000000000000000000000000000000000000000000000000008152600401612e87906141b3565b60405180910390fd5b505b505050505050565b6000826000018281548110612ed8577f4e487b7100000000000000000000000000000000000000000000000000000000600052603260045260246000fd5b9060005260206000200154905092915050565b600081600001805490509050919050565b600080836001016000848152602001908152602001600020541415905092915050565b60007f7965db0b000000000000000000000000000000000000000000000000000000007bffffffffffffffffffffffffffffffffffffffffffffffffffffffff1916827bffffffffffffffffffffffffffffffffffffffffffffffffffffffff19161480612f925750612f9182613354565b5b9050919050565b612fa78686868686866133be565b600073ffffffffffffffffffffffffffffffffffffffff168573ffffffffffffffffffffffffffffffffffffffff1614156130a55760005b83518110156130a357828181518110613021577f4e487b7100000000000000000000000000000000000000000000000000000000600052603260045260246000fd5b602002602001015160066000868481518110613066577f4e487b7100000000000000000000000000000000000000000000000000000000600052603260045260246000fd5b60200260200101518152602001908152602001600020600082825461308b91906145dc565b925050819055508061309c9061481a565b9050612fdf565b505b600073ffffffffffffffffffffffffffffffffffffffff168473ffffffffffffffffffffffffffffffffffffffff1614156131a35760005b83518110156131a15782818151811061311f577f4e487b7100000000000000000000000000000000000000000000000000000000600052603260045260246000fd5b602002602001015160066000868481518110613164577f4e487b7100000000000000000000000000000000000000000000000000000000600052603260045260246000fd5b602002602001015181526020019081526020016000206000828254613189919061468c565b925050819055508061319a9061481a565b90506130dd565b505b505050505050565b6000808273ffffffffffffffffffffffffffffffffffffffff163b119050919050565b60008083600101600084815260200190815260200160002054905060008114613348576000600182613200919061468c565b9050600060018660000180549050613218919061468c565b90508181146132d357600086600001828154811061325f577f4e487b7100000000000000000000000000000000000000000000000000000000600052603260045260246000fd5b90600052602060002001549050808760000184815481106132a9577f4e487b7100000000000000000000000000000000000000000000000000000000600052603260045260246000fd5b90600052602060002001819055508387600101600083815260200190815260200160002081905550505b8560000180548061330d577f4e487b7100000000000000000000000000000000000000000000000000000000600052603160045260246000fd5b60019003818190600052602060002001600090559055856001016000868152602001908152602001600020600090556001935050505061334e565b60009150505b92915050565b60007f01ffc9a7000000000000000000000000000000000000000000000000000000007bffffffffffffffffffffffffffffffffffffffffffffffffffffffff1916827bffffffffffffffffffffffffffffffffffffffffffffffffffffffff1916149050919050565b505050505050565b60006133d96133d4846144d7565b6144b2565b905080838252602082019050828560208602820111156133f857600080fd5b60005b85811015613428578161340e88826134dc565b8452602084019350602083019250506001810190506133fb565b5050509392505050565b600061344561344084614503565b6144b2565b9050808382526020820190508285602086028201111561346457600080fd5b60005b85811015613494578161347a888261360d565b845260208401935060208301925050600181019050613467565b5050509392505050565b60006134b16134ac8461452f565b6144b2565b9050828152602081018484840111156134c957600080fd5b6134d484828561474b565b509392505050565b6000813590506134eb8161504d565b92915050565b60008083601f84011261350357600080fd5b8235905067ffffffffffffffff81111561351c57600080fd5b60208301915083602082028301111561353457600080fd5b9250929050565b600082601f83011261354c57600080fd5b813561355c8482602086016133c6565b91505092915050565b600082601f83011261357657600080fd5b8135613586848260208601613432565b91505092915050565b60008135905061359e81615064565b92915050565b6000813590506135b38161507b565b92915050565b6000813590506135c881615092565b92915050565b6000815190506135dd81615092565b92915050565b600082601f8301126135f457600080fd5b813561360484826020860161349e565b91505092915050565b60008135905061361c816150a9565b92915050565b600081359050613631816150c0565b92915050565b60006020828403121561364957600080fd5b6000613657848285016134dc565b91505092915050565b6000806040838503121561367357600080fd5b6000613681858286016134dc565b9250506020613692858286016134dc565b9150509250929050565b600080600080600060a086880312156136b457600080fd5b60006136c2888289016134dc565b95505060206136d3888289016134dc565b945050604086013567ffffffffffffffff8111156136f057600080fd5b6136fc88828901613565565b935050606086013567ffffffffffffffff81111561371957600080fd5b61372588828901613565565b925050608086013567ffffffffffffffff81111561374257600080fd5b61374e888289016135e3565b9150509295509295909350565b600080600080600060a0868803121561377357600080fd5b6000613781888289016134dc565b9550506020613792888289016134dc565b94505060406137a38882890161360d565b93505060606137b48882890161360d565b925050608086013567ffffffffffffffff8111156137d157600080fd5b6137dd888289016135e3565b9150509295509295909350565b600080604083850312156137fd57600080fd5b600061380b858286016134dc565b925050602061381c8582860161358f565b9150509250929050565b6000806040838503121561383957600080fd5b6000613847858286016134dc565b92505060206138588582860161360d565b9150509250929050565b60008060006040848603121561387757600080fd5b600084013567ffffffffffffffff81111561389157600080fd5b61389d868287016134f1565b935093505060206138b086828701613622565b9150509250925092565b600080604083850312156138cd57600080fd5b600083013567ffffffffffffffff8111156138e757600080fd5b6138f38582860161353b565b925050602083013567ffffffffffffffff81111561391057600080fd5b61391c85828601613565565b9150509250929050565b60006020828403121561393857600080fd5b6000613946848285016135a4565b91505092915050565b6000806040838503121561396257600080fd5b6000613970858286016135a4565b9250506020613981858286016134dc565b9150509250929050565b6000806040838503121561399e57600080fd5b60006139ac858286016135a4565b92505060206139bd8582860161360d565b9150509250929050565b6000602082840312156139d957600080fd5b60006139e7848285016135b9565b91505092915050565b600060208284031215613a0257600080fd5b6000613a10848285016135ce565b91505092915050565b600060208284031215613a2b57600080fd5b6000613a398482850161360d565b91505092915050565b600080600060608486031215613a5757600080fd5b6000613a6586828701613622565b9350506020613a768682870161360d565b925050604084013567ffffffffffffffff811115613a9357600080fd5b613a9f868287016135e3565b9150509250925092565b6000613ab58383613f5a565b60208301905092915050565b613aca816146c0565b82525050565b6000613adb82614570565b613ae5818561459e565b9350613af083614560565b8060005b83811015613b21578151613b088882613aa9565b9750613b1383614591565b925050600181019050613af4565b5085935050505092915050565b613b37816146d2565b82525050565b613b46816146de565b82525050565b6000613b578261457b565b613b6181856145af565b9350613b7181856020860161475a565b613b7a81614912565b840191505092915050565b6000613b9082614586565b613b9a81856145c0565b9350613baa81856020860161475a565b613bb381614912565b840191505092915050565b6000613bc982614586565b613bd381856145d1565b9350613be381856020860161475a565b80840191505092915050565b6000613bfc6034836145c0565b9150613c0782614930565b604082019050919050565b6000613c1f6020836145c0565b9150613c2a8261497f565b602082019050919050565b6000613c426028836145c0565b9150613c4d826149a8565b604082019050919050565b6000613c656024836145c0565b9150613c70826149f7565b604082019050919050565b6000613c886014836145c0565b9150613c9382614a46565b602082019050919050565b6000613cab602b836145c0565b9150613cb682614a6f565b604082019050919050565b6000613cce6026836145c0565b9150613cd982614abe565b604082019050919050565b6000613cf16029836145c0565b9150613cfc82614b0d565b604082019050919050565b6000613d146020836145c0565b9150613d1f82614b5c565b602082019050919050565b6000613d376018836145c0565b9150613d4282614b85565b602082019050919050565b6000613d5a6010836145c0565b9150613d6582614bae565b602082019050919050565b6000613d7d6025836145c0565b9150613d8882614bd7565b604082019050919050565b6000613da06032836145c0565b9150613dab82614c26565b604082019050919050565b6000613dc3602a836145c0565b9150613dce82614c75565b604082019050919050565b6000613de66034836145c0565b9150613df182614cc4565b604082019050919050565b6000613e096020836145c0565b9150613e1482614d13565b602082019050919050565b6000613e2c6021836145c0565b9150613e3782614d3c565b604082019050919050565b6000613e4f6017836145d1565b9150613e5a82614d8b565b601782019050919050565b6000613e726029836145c0565b9150613e7d82614db4565b604082019050919050565b6000613e956029836145c0565b9150613ea082614e03565b604082019050919050565b6000613eb86028836145c0565b9150613ec382614e52565b604082019050919050565b6000613edb6021836145c0565b9150613ee682614ea1565b604082019050919050565b6000613efe6011836145d1565b9150613f0982614ef0565b601182019050919050565b6000613f21602f836145c0565b9150613f2c82614f19565b604082019050919050565b6000613f446032836145c0565b9150613f4f82614f68565b604082019050919050565b613f6381614734565b82525050565b613f7281614734565b82525050565b613f818161473e565b82525050565b6000613f938285613bbe565b9150613f9f8284613bbe565b91508190509392505050565b6000613fb682613e42565b9150613fc28285613bbe565b9150613fcd82613ef1565b9150613fd98284613bbe565b91508190509392505050565b6000602082019050613ffa6000830184613ac1565b92915050565b600060a0820190506140156000830188613ac1565b6140226020830187613ac1565b81810360408301526140348186613ad0565b905081810360608301526140488185613ad0565b9050818103608083015261405c8184613b4c565b90509695505050505050565b600060a08201905061407d6000830188613ac1565b61408a6020830187613ac1565b6140976040830186613f69565b6140a46060830185613f69565b81810360808301526140b68184613b4c565b90509695505050505050565b600060208201905081810360008301526140dc8184613ad0565b905092915050565b600060408201905081810360008301526140fe8185613ad0565b905081810360208301526141128184613ad0565b90509392505050565b60006020820190506141306000830184613b2e565b92915050565b600060208201905061414b6000830184613b3d565b92915050565b6000602082019050818103600083015261416b8184613b85565b905092915050565b6000602082019050818103600083015261418c81613bef565b9050919050565b600060208201905081810360008301526141ac81613c12565b9050919050565b600060208201905081810360008301526141cc81613c35565b9050919050565b600060208201905081810360008301526141ec81613c58565b9050919050565b6000602082019050818103600083015261420c81613c7b565b9050919050565b6000602082019050818103600083015261422c81613c9e565b9050919050565b6000602082019050818103600083015261424c81613cc1565b9050919050565b6000602082019050818103600083015261426c81613ce4565b9050919050565b6000602082019050818103600083015261428c81613d07565b9050919050565b600060208201905081810360008301526142ac81613d2a565b9050919050565b600060208201905081810360008301526142cc81613d4d565b9050919050565b600060208201905081810360008301526142ec81613d70565b9050919050565b6000602082019050818103600083015261430c81613d93565b9050919050565b6000602082019050818103600083015261432c81613db6565b9050919050565b6000602082019050818103600083015261434c81613dd9565b9050919050565b6000602082019050818103600083015261436c81613dfc565b9050919050565b6000602082019050818103600083015261438c81613e1f565b9050919050565b600060208201905081810360008301526143ac81613e65565b9050919050565b600060208201905081810360008301526143cc81613e88565b9050919050565b600060208201905081810360008301526143ec81613eab565b9050919050565b6000602082019050818103600083015261440c81613ece565b9050919050565b6000602082019050818103600083015261442c81613f14565b9050919050565b6000602082019050818103600083015261444c81613f37565b9050919050565b60006020820190506144686000830184613f69565b92915050565b60006040820190506144836000830185613f69565b6144906020830184613f69565b9392505050565b60006020820190506144ac6000830184613f78565b92915050565b60006144bc6144cd565b90506144c882826147e9565b919050565b6000604051905090565b600067ffffffffffffffff8211156144f2576144f16148c1565b5b602082029050602081019050919050565b600067ffffffffffffffff82111561451e5761451d6148c1565b5b602082029050602081019050919050565b600067ffffffffffffffff82111561454a576145496148c1565b5b61455382614912565b9050602081019050919050565b6000819050602082019050919050565b600081519050919050565b600081519050919050565b600081519050919050565b6000602082019050919050565b600082825260208201905092915050565b600082825260208201905092915050565b600082825260208201905092915050565b600081905092915050565b60006145e782614734565b91506145f283614734565b9250827fffffffffffffffffffffffffffffffffffffffffffffffffffffffffffffffff0382111561462757614626614863565b5b828201905092915050565b600061463d82614734565b915061464883614734565b9250817fffffffffffffffffffffffffffffffffffffffffffffffffffffffffffffffff048311821515161561468157614680614863565b5b828202905092915050565b600061469782614734565b91506146a283614734565b9250828210156146b5576146b4614863565b5b828203905092915050565b60006146cb82614714565b9050919050565b60008115159050919050565b6000819050919050565b60007fffffffff0000000000000000000000000000000000000000000000000000000082169050919050565b600073ffffffffffffffffffffffffffffffffffffffff82169050919050565b6000819050919050565b600060ff82169050919050565b82818337600083830152505050565b60005b8381101561477857808201518184015260208101905061475d565b83811115614787576000848401525b50505050565b600061479882614734565b915060008214156147ac576147ab614863565b5b600182039050919050565b600060028204905060018216806147cf57607f821691505b602082108114156147e3576147e2614892565b5b50919050565b6147f282614912565b810181811067ffffffffffffffff82111715614811576148106148c1565b5b80604052505050565b600061482582614734565b91507fffffffffffffffffffffffffffffffffffffffffffffffffffffffffffffffff82141561485857614857614863565b5b600182019050919050565b7f4e487b7100000000000000000000000000000000000000000000000000000000600052601160045260246000fd5b7f4e487b7100000000000000000000000000000000000000000000000000000000600052602260045260246000fd5b7f4e487b7100000000000000000000000000000000000000000000000000000000600052604160045260246000fd5b600060033d111561490f5760046000803e61490c600051614923565b90505b90565b6000601f19601f8301169050919050565b60008160e01c9050919050565b7f455243313135353a207472616e7366657220746f206e6f6e204552433131353560008201527f526563656976657220696d706c656d656e746572000000000000000000000000602082015250565b7f537472696e67733a20686578206c656e67746820696e73756666696369656e74600082015250565b7f455243313135353a204552433131353552656365697665722072656a6563746560008201527f6420746f6b656e73000000000000000000000000000000000000000000000000602082015250565b7f546869732061646472657373206973206e6f7420616c6c6f77656420746f206d60008201527f696e742e00000000000000000000000000000000000000000000000000000000602082015250565b7f5061757361626c653a206e6f7420706175736564000000000000000000000000600082015250565b7f455243313135353a2062616c616e636520717565727920666f7220746865207a60008201527f65726f2061646472657373000000000000000000000000000000000000000000602082015250565b7f4f776e61626c653a206e6577206f776e657220697320746865207a65726f206160008201527f6464726573730000000000000000000000000000000000000000000000000000602082015250565b7f455243313135353a2063616c6c6572206973206e6f74206f776e6572206e6f7260008201527f20617070726f7665640000000000000000000000000000000000000000000000602082015250565b7f5468697320616464726573732068617320616c7265616479206d696e7465642e600082015250565b7f4f6e6c792031206d696e742070657220616464726573732e0000000000000000600082015250565b7f5061757361626c653a2070617573656400000000000000000000000000000000600082015250565b7f455243313135353a207472616e7366657220746f20746865207a65726f20616460008201527f6472657373000000000000000000000000000000000000000000000000000000602082015250565b7f455243313135353a207472616e736665722063616c6c6572206973206e6f742060008201527f6f776e6572206e6f7220617070726f7665640000000000000000000000000000602082015250565b7f455243313135353a20696e73756666696369656e742062616c616e636520666f60008201527f72207472616e7366657200000000000000000000000000000000000000000000602082015250565b7f416476656e75726542616467653a206d75737420686176652061646d696e207260008201527f6f6c6520746f2073657420616c6c6f776c697374000000000000000000000000602082015250565b7f4f776e61626c653a2063616c6c6572206973206e6f7420746865206f776e6572600082015250565b7f546869732069732061206e6f6e2d7472616e7365727261626c6520746f6b656e60008201527f2e00000000000000000000000000000000000000000000000000000000000000602082015250565b7f416363657373436f6e74726f6c3a206163636f756e7420000000000000000000600082015250565b7f455243313135353a2073657474696e6720617070726f76616c2073746174757360008201527f20666f722073656c660000000000000000000000000000000000000000000000602082015250565b7f455243313135353a206163636f756e747320616e6420696473206c656e67746860008201527f206d69736d617463680000000000000000000000000000000000000000000000602082015250565b7f455243313135353a2069647320616e6420616d6f756e7473206c656e6774682060008201527f6d69736d61746368000000000000000000000000000000000000000000000000602082015250565b7f455243313135353a206d696e7420746f20746865207a65726f2061646472657360008201527f7300000000000000000000000000000000000000000000000000000000000000602082015250565b7f206973206d697373696e6720726f6c6520000000000000000000000000000000600082015250565b7f416363657373436f6e74726f6c3a2063616e206f6e6c792072656e6f756e636560008201527f20726f6c657320666f722073656c660000000000000000000000000000000000602082015250565b7f546869732061646472657373206973206e6f7420656c696769626c6520746f2060008201527f6d696e74207468697320746f6b656e49642e0000000000000000000000000000602082015250565b600060443d1015614fc75761504a565b614fcf6144cd565b60043d036004823e80513d602482011167ffffffffffffffff82111715614ff757505061504a565b808201805167ffffffffffffffff811115615015575050505061504a565b80602083010160043d03850181111561503257505050505061504a565b615041826020018501866147e9565b82955050505050505b90565b615056816146c0565b811461506157600080fd5b50565b61506d816146d2565b811461507857600080fd5b50565b615084816146de565b811461508f57600080fd5b50565b61509b816146e8565b81146150a657600080fd5b50565b6150b281614734565b81146150bd57600080fd5b50565b6150c98161473e565b81146150d457600080fd5b5056fea2646970667358221220ebe5101d5c061d9e54c221af2a5e04a34f0a8d09739bea55ababb152b9c0ec9664736f6c63430008040033",
  "linkReferences": {},
  "deployedLinkReferences": {}
}